:020000040800F2
:10000000F00600209D01000883290008D323000882
:1000100081290008790900088533000800000000E4
:10002000000000000000000000000000832B00081A
:100030007B09000800000000C5290008852B000886
:10004000B7010008B7010008B7010008B7010008B0
:10005000B7010008B70100087D090008B7010008D2
:10006000B7010008B7010008B7010008B701000890
:10007000B7010008B7010008B7010008B701000880
:10008000B7010008B7010008B7010008B701000870
:10009000B7010008B7010008B7010008B701000860
:1000A000B7010008892C0008B7010008B701000853
:1000B000B7010008952C0008B7010008B701000837
:1000C000B7010008B7010008B7010008B701000830
:1000D000B7010008B701000879330008B70100082C
:1000E000B7010008B7010008B7010008B701000810
:1000F000B7010008B7010008B7010008B701000800
:10010000B7010008B7010008B7010008B7010008EF
:10011000B7010008B7010008B7010008B7010008DF
:10012000B7010008B7010008B7010008B7010008CF
:10013000B7010008B7010008B7010008B7010008BF
:10014000B7010008B7010008B7010008B7010008AF
:10015000B7010008B7010008B7010008B70100089F
:10016000B7010008B7010008B7010008B70100088F
:10017000B7010008B7010008B7010008000000003F
:10018000B7010008B7010008DFF80CD000F050FB01
:1001900000480047413E0008F0060020064880471E
:1001A00006480047FEE7FEE7FEE7FEE7FEE7FEE75C
:1001B000FEE7FEE7FEE7FEE7352C000889010008B0
:1001C0002DE9F05F0546002092469B46884606468C
:1001D000814640241BE0284641464746224600F01F
:1001E000D1F953465A46C01A914110D311461846C8
:1001F000224600F0B8F92D1A67EB01084F46224657
:100200000120002100F0AFF917EB00094E41201E3C
:10021000A4F10104DFDC484631462A464346BDE8E6
:10022000F09F421C10F8011B0029FBD1801A704777
:100230002DE9FE4F804681EA0300C00F0C46009076
:1002400021F0004123F00045B8EB0200A94105D29E
:100250004046214690461C460B46024623F000408D
:10026000104347D0270DC7F30A00C3F30A51029089
:10027000401A019040286BDAC3F3130040F4801B4E
:100280000098924620B10023D2EB030A63EB0B0BDC
:1002900001985946C0F14002504600F064F9064604
:1002A0000D4650465946019A00F07CF910EB0800C3
:1002B0006141002487EA115284EAE7731A4340D06F
:1002C000009A62B3019A012A4FEA075215DC001B1B
:1002D00061EB02014FF0004202EA0752CDE9004211
:1002E000001C41F5801132462B4600F0B3F903B0F3
:1002F000BDE8F08F40462146F9E7001B61EB0201A3
:10030000001C41F5801300185B412018A2F500176E
:1003100047EB030140EAD570B6196D4111E06D0855
:100320004FEA360645EAC0754FEA0752001B61EBFB
:100330000201001C41F5801149084FEA3000001904
:10034000514132462B4603B0BDE8F04F00F073B97F
:100350000098012240000023D0EB020263EBE0731F
:10036000009821464FEAE074B8EB000061EB04010D
:10037000E9E783F000435BE781F0004158E72DE9AE
:10038000FE4F81EA030404F0004421F00041009490
:100390004FF0000B23F0004350EA01045ED052EA14
:1003A00003045BD0C3F30A54C1F30A552C44A4F2EE
:1003B000F3340194A0FB0254C1F3130141F4801102
:1003C000C3F3130343F4801301FB024400FB034E09
:1003D000840A970A44EA815447EA8357A4FB0768D2
:1003E00002958D0A05FB07854FEA932C04FB0C54FC
:1003F0002705029D4FEA065847EA1637B5EB080570
:100400006EEB070C870E920E47EA811742EA8312C1
:10041000A7FB0201B6EB0B0164EB00042B0D43EAD2
:100420000C335E1844EB1C50DA465146E7FB0201E0
:10043000C5F313044FEA0B3343EA14534FEA043273
:10044000019C43EA0603A4F10C040294009CCDE94C
:1004500000B400F0FFF803B0BDE8F08F00200146C3
:10046000F9E70EB5C10F80EAE0700844CA07002121
:1004700040F233438DE80E000A460B4600F0EAF8DE
:1004800003B000BD0EB540F2334102910021CDE929
:1004900000110A460B4600F0DDF803B000BD70B550
:1004A000C1F30A5201F000450024C1F3130140F2E8
:1004B000FF3341F480119A4201DA002070BD40F20E
:1004C00033439A42A2F2334203DC524200F05AF81C
:1004D00000E090402C43F1D0404270BD00F000425B
:1004E00030F000400AD0C10D01F56071C0F3160074
:1004F00042EA0151C20840071143704700200146FB
:10050000704701F0004330B421F0004150EA01028D
:1005100006D00A0DA2F56072C1F31301002A02DCB5
:1005200030BC00207047440F44EAC104C100E01809
:1005300030BC00EBC25000F047B830B50B46014666
:1005400000202022012409E021FA02F59D4205D372
:1005500003FA02F5491B04FA02F52844151EA2F11C
:100560000102F1DC30BD202A04DB203A00FA02F15E
:10057000002070479140C2F1200320FA03F3194391
:1005800090407047202A04DB203A21FA02F0002133
:10059000704721FA02F3D040C2F120029140084393
:1005A00019467047202A06DBCB17203A41FA02F0A1
:1005B00043EAE07306E041FA02F3D040C2F12002C0
:1005C00091400843194670470029A8BF7047401C56
:1005D000490008BF20F00100704710B4B0FA80FC59
:1005E00000FA0CF050EA010404BF10BC704749B196
:1005F000CCF1200421FA04F411FA0CF118BF012106
:1006000021430843A3EB0C01CB1D4FEA00614FEAE5
:10061000102042BF002010BC704700EBC3501044B4
:100620000029A4BF10BC7047401C490008BF20F03F
:10063000010010BC704710B5141E73F1000408DAF5
:10064000401C41F1000192185B411A4301D120F096
:10065000010010BD2DE9F04D92469B4611B1B1FA53
:1006600081F202E0B0FA80F220329046FFF77BFF81
:1006700004460F4640EA0A0041EA0B0153465A4637
:10068000084313D0114653EA010019D0C8F14002C3
:100690005046FFF777FF05460E46504659464246FC
:1006A000FFF761FF084305D0012004E020463946EA
:1006B000BDE8F08D0020054346EAE0762C43374341
:1006C0000A986305E40AA0EB08000022FD0A44EA48
:1006D00047540A3002D500200146E9E70105101908
:1006E0006941DDE9084500196941BDE8F04DA2E71F
:1006F0002DE9F04D81EA030404F0004B21F00045A0
:1007000014464FF0000A23F0004150EA050220D0C1
:1007100054EA01021DD0C5F30A570246C5F313037C
:10072000C1F31300C1F30A5640F4801543F480135B
:10073000A7EB0608101BD64608F2FD3873EB050040
:1007400002D308F1010801E092185B41B8F1000FF3
:1007500003DA00200146BDE8F08D00204FF480113F
:10076000064684460EE0171B73EB050705D3121BE4
:1007700063EB050306434CEA010C49084FEA3000DD
:1007800092185B4150EA0107EDD152EA030012D002
:1007900082EA040083EA0501084305D0101BAB413F
:1007A00006D20122002306E000224FF0004302E0BF
:1007B0006FF0010253101AEB06004CEB085110EBDE
:1007C0000A0041EB0B01BDE8F04DFFF734BFC1F368
:1007D0000A52C1F3130140F2FF3341F480119A42EF
:1007E00002DA00200146704740F233439A42A2F2F7
:1007F000334202DC5242FFF7C5BEFFF7B4BE000031
:1008000030B5041E71F1000404DB4FF00044404297
:1008100064EB0101141E73F1000405DB1C464FF06C
:100820000043524263EB0403994208BF904230BD3B
:10083000064C074D06E0E06840F0010394E807002D
:1008400098471034AC42F6D3FFF7A2FC8C40000866
:10085000AC400008454910B54A6822F440324A606D
:100860004A6843681A434A6001684A6822F4807201
:100870004A6001684A68036942EA03224A600168E3
:100880004A6822F040724A6001684A6883681A43E5
:100890004A6001688A6822F400628A6001688A6896
:1008A000C3681A438A60816A6FF07062D14201683E
:1008B0008A6822F070628A6001688A680CD0836A54
:1008C0001A438A6001688A6822F040528A6001688F
:1008D0008A68C36A1A4301E022F040528A600168C4
:1008E0008A6822F002028A6001688A68836942EAA3
:1008F00043028A60016A002901684A680FD042F405
:1009000000624A6001684A6822F460424A600168F5
:100910004A68174C436A04EB43331A4301E022F45C
:1009200000624A600168CA6A22F47002CA62016801
:10093000CA6A838B0F4C04EB03531A43CA620168E3
:100940008A6822F400728A6001688A68036B42EA4E
:1009500043228A6001688A6822F480628A600168A2
:100960008A68406942EA8020886010BD0023014007
:1009700000E0FFFF0000F0FFFEE77047012000F0FD
:1009800077BA000078B50024009490F83C20012A42
:1009900019D0012280F83C200A6807250368092A3B
:1009A00013D9DE680A3A02EB42029540AE43DE609C
:1009B0000A788B680A3A02EB420293400268D568D3
:1009C0002B43D36010E0022078BD1E6902EB420287
:1009D0009540AE431E610A788B6802EB4202934059
:1009E000026815692B4313614A681F25072A13D231
:1009F00003685E6B521E02EB82029540AE435E635B
:100A00000A8893B20A79521E02EB8202934002686E
:100A1000556B2B43536327E003680D2A12D21E6BDC
:100A2000D21F02EB82029540AE431E630A8893B246
:100A30000A79D21F02EB820293400268156B2B43A6
:100A4000136311E0DE6A0D3A02EB82029540AE4379
:100A5000DE620A8893B20A790D3A02EB8202934071
:100A60000268D56A2B43D362164B0568144A9D422F
:100A700006D10D68122D03D1556845F480055560E7
:100A800005689D4218D10B68102B01D0112B13D192
:100A9000536843F400035360096810290CD10A49D4
:100AA0000A4A0968B1FBF2F101EB8101490000E05B
:100AB000491E00910029FBD180F83C40002078BD00
:100AC0000023014000200140E000002040420F00D0
:100AD0000068C06C704770B504004FF0000603D08A
:100AE000206C002510B107E0012070BD656484F81A
:100AF0003C50204600F01AF8206CC00610D4206C40
:100B000020F4885040F0020020642046FFF7A2FE47
:100B10006564206C20F0020040F00100206400E0D9
:100B2000012684F83C50304670BD000000B50068D6
:100B30000C4987B0884212D10B480021026842F468
:100B400080720260006800F48070059002200090BE
:100B50000320CDE901016946044800F095F907B08A
:100B600000BD000000200140443802400000024067
:100B70002DE9F041044600680D4681684FF00007FA
:100B800049050BD58068C00508D5206C40F02000D1
:100B9000206484F83C700120BDE8F08100F062FA26
:100BA00006460FE0681C0DD025B100F05BFA801BF3
:100BB000A84207D9206C40F00400206484F83C70FF
:100BC0000320E9E7206800688007EBD521686FF013
:100BD00012000860206C40F4007020642068816876
:100BE00011F0405F13D1A16989B9C16A11F4700F86
:100BF00002D0806840050AD4206C20F48070206404
:100C0000206CC00403D4206C40F00100206400205C
:100C1000C2E7000018B50022009290F83C100129AC
:100C200007D0012180F83C1001688B68DB0702D0F7
:100C300011E0022018BD8B6843F001038B6020494E
:100C4000204B0968B1FBF3F101EB410100E0491EC3
:100C500000910029FBD101688B68DB072DD0036C64
:100C600040F20164A34343F4807303644B685B0563
:100C700005D5036C23F4005343F480530364036CE1
:100C8000DB0404D5436C23F00603436400E04264B4
:100C900080F83C200C4A6FF022030B60516800681A
:100CA000C90602D00949884207D1816811F0405F26
:100CB00003D1816841F080418160002018BD0000AF
:100CC000E000002040420F000023014000200140CE
:100CD00070B54379012B1AD00126467102230371A6
:100CE00003681D6840F6FE749440A543D1E90041B5
:100CF0000C4394402C431C6001680B68C024944052
:100D0000A3430B60067100214171084670BD0220AB
:100D100070BD70B5040003D02079002510B105E046
:100D2000012070BD6571204600F008F80220207196
:100D3000256101202071002070BD000000B5006811
:100D40000C4987B0884212D10B480021026842F05A
:100D500000520260006800F00050059030200090C2
:100D60000320CDE901016946044800F08DF807B081
:100D700000BD000000740040403802400000024006
:100D800018B5046800940068104421B11430009034
:100D90000360002018BD0830F9E730B54279012A18
:100DA00016D001234371022202710268146803FA0B
:100DB00001F52C431460002901680A680AD00C6808
:100DC00002F4802204F46014B2F5802F0FD015E0F5
:100DD000022030BD0C6802F0040204F03804042A3A
:100DE0000CD1382C0AD14A6842F0010205E0B4F572
:100DF000601F03D14A6842F002024A600371002179
:100E00004171084630BD90F83510022903D0802189
:100E1000416501207047052180F8351000680168A0
:100E200021F00101016000207047000070B5044608
:100E300000F018F90546601C02D00448007804440C
:100E400000F010F9401BA042FAD370BD0000002052
:100E5000012808D104488168491C81604FF4804111
:100E6000024800F0F6B870470C000020000C024069
:100E7000044910B50A68024202D00860FFF7E8FF93
:100E800010BD0000143C01402DE9F84FDFF88C91B3
:100E9000002209F1040A0AF1040B4FF00F080BF1CC
:100EA000040E01260B6896403340B34271D14C6862
:100EB000022C01D0122C11D1D40800EB84073D6A1A
:100EC0005407E40E08FA04FC25EA0C05D1F810C01A
:100ED0000CFA04FC4CEA050CC7F820C00768540063
:100EE000032591F804C0A5400CF0030CAF430CFAA5
:100EF00004FC4CEA070CC0F800C04F68012F05D075
:100F0000022F03D0112F01D0122F11D18768D1F8F1
:100F10000CC0AF430CFA04FC4CEA070CC0F808C044
:100F20004768B7430E79C6F3001696403E434660C5
:100F3000C668AE438D68A5403543C5604C68E40083
:100F400065D5374C256845F480452560246822F036
:100F5000030504F480440094324C2E19D6F8087826
:100F60009407250F08FA05F4A7432F4CA04201D19E
:100F7000002424E02D4CA04201D101241FE02C4C80
:100F8000A04201D102241AE02A4CA04202D103243B
:100F900015E03CE0284CA04201D104240FE0274C8E
:100FA000A04201D105240AE0254CA04201D106242B
:100FB00005E0244CA04201D1072400E00824AC4005
:100FC0003C43C6F80848D9F800404D464E689C435B
:100FD000F60300D51C432C60DAF8004055464E68F5
:100FE0009C43B60300D51C432C60DBF800405D46F3
:100FF0004E689C43F60200D51C432C60DEF800408E
:1010000075464E689C43B60200D51C432C60521CAA
:10101000102AFFF446AFBDE8F88F0000003C014005
:101020004438024000300140000002400004024009
:1010300000080240000C0240001002400014024070
:1010400000180240001C02400069084000D0012046
:10105000704742694A40426170470AB181617047F6
:101060000904FBE701488068704700000000002089
:1010700070B5040004D094F83D00002510B106E0DE
:10108000012070BD84F83C50204600F011F9242066
:1010900084F83D002068016821F00101016000F042
:1010A00077FA33492268B0FBF1F15160314A636845
:1010B000934206D94FF4967359434FF47A73B1FBB8
:1010C000F3F12368491C1962616891420BD8490009
:1010D000B0FBF1F2C2F30B02042A01D2042019E0A2
:1010E000B0FBF1F016E0A3689BB301EBC10202EB89
:1010F0000112B0FBF2F242F48042120530D04BB341
:1011000001EBC10202EB0111B0FBF1F040F48040B1
:1011100040F400402168C861D4E907010843216810
:101120000860D4E90310084321688860D4E9050108
:1011300008432168C8602068016841F0010101602E
:101140002564202084F83D00256384F83E5000206B
:1011500070BD00E006E001EB4102B0FBF2F2CCE72B
:101160000120D7E701EB4101B0FBF1F0D0E700002F
:1011700040420F00A08601002DE9F84F1F4690461F
:101180008A460446DDF82890FFF76CFF054694F880
:101190003D0020287ED11923012243492046009595
:1011A00001F09DF900287DD194F83C00012879D008
:1011B000012084F83C0020680168C90703D1016858
:1011C00041F0010101602068016821F400610160C3
:1011D000212084F83D00102084F83E00002626647B
:1011E000C4F8248067853148E062608D20852B46F5
:1011F0004A465146204601F001F928B1206C84F896
:101200003C6004284CD00DE0206841698069009062
:1012100030E02A464946204601F0D4F928B1206C36
:10122000042838D00320BDE8F88F606A411C616251
:10123000216800780861608D401E6085208D401E09
:1012400080B2208521684A69D24352070BD450B13D
:10125000606A421C626200780861608D401E608591
:10126000208D401E20852A464946204601F010F96F
:101270000028D4D1208D0028CBD154F83D0B016833
:1012800041F400710160202004F81E09E6776677BA
:101290000020C8E706E02068016841F400710160A1
:1012A0000120C0E70220BEE7020010000000FFFF9F
:1012B00000B500680E4987B0884216D1C020009062
:1012C000122001900120029003200390042004903A
:1012D00069460848FFF7D8FD0748016841F4001146
:1012E0000160006800F40010059007B000BD000028
:1012F0000054004000040240403802400248816827
:101300000278114481607047000000200B4810B53E
:10131000016841F400710160016841F4806101607D
:10132000016841F480710160032000F081F8002021
:1013300000F006F800F024F8002010BD003C024048
:1013400070B50D4D04464FF47A712878B1FBF0F07A
:101350000A490968B1FBF0F000F019FC48B9102CFB
:1013600007D200222146501E00F042F800206C6097
:1013700070BD012070BD000000000020E0000020D2
:1013800010B5032000F054F8002211466FF00B0056
:1013900000F02EF8002211466FF00A0000F028F845
:1013A000002211466FF0090000F022F800221146D9
:1013B000501F00F01DF800221146101F00F018F811
:1013C00000221146901E00F013F80022BDE81040E4
:1013D0001146501E00F00CB800F01F020121914090
:1013E0004009800000F1E020C0F8001170470000C3
:1013F000F0B40E4B1B68C3F30223C3F10704042CA3
:1014000000D904241D1D072D01D2002300E0DB1E9E
:10141000012606FA04F56D1E0D409D409E40761E85
:10142000164045EA0601F0BC01F0ACBA0CED00E054
:10143000064A00F0070110684FF6FF03184040EA23
:101440000120034908431060704700000CED00E0E4
:101450000000FA052DE9F0470D46040065D0DFF8DD
:101460001491D9F80000EFB200F00F00A84207D2A3
:1014700089F80070D9F8000000F00F00A84254D19C
:1014800020683D4E810712D5400703D5306840F4EF
:10149000E05030602078000703D5306840F46040A9
:1014A00030603068A16820F0F00008433060207898
:1014B000C0072DD0304960680839012812D00228B1
:1014C00013D0032811D00968890700292DDA316863
:1014D00021F0030101433160FFF7C4FD804641F272
:1014E000883A0EE009688903EFE709688901ECE7AB
:1014F000FFF7B8FDA0EB0801514502D90320BDE874
:10150000F0873068616800F00C00B0EB810FEFD11C
:10151000D9F80010484601F00F01A94207D9077019
:10152000006800F00F00A84201D00120E7E7207812
:10153000400705D53068E16820F4E050084330608A
:101540002078000706D53068216920F4604040EA21
:10155000C100306000F03CF83168084AC1F3031163
:10156000515CC840064908600020FFF7E9FE0020F2
:10157000C5E70000003C0240083802407240000805
:10158000E00000200148006870470000E0000020F3
:101590000448054900680968044AC1F38221515C86
:1015A000C8407047E0000020083802408240000830
:1015B0000448054900680968044AC1F34231515C96
:1015C000C8407047E0000020083802408240000810
:1015D000154810B5006810F00C01144813D04310E2
:1015E00004290FD008290ED10F4C241F216801F0C7
:1015F0003F022168490207D52068C0F38810A0FB8C
:10160000030106E0184610BD2168C1F38811A1FB53
:1016100000010023FEF7D4FD2168C1F30141491CFC
:101620004900B0FBF1F010BD083802400024F4007E
:101630002DE9F84F040073D02078BD4DC00748D085
:10164000BB4808300168C1F38101012908D0006856
:10165000C0F3810002280AD1281D0068400206D587
:101660002868800335D560680028E4D031E06068E0
:10167000B0F5803F10D0B0F5A02F286810D020F42E
:1016800080302860286820F4802028606068A0B13D
:10169000FFF7E8FC06460CE0286840F48030F4E7E9
:1016A00040F480202860F7E7FFF7DCFC801B64280B
:1016B00072D828688003F7D50BE0FFF7D3FC064605
:1016C00004E0FFF7CFFC801B6428F1D82868800372
:1016D000F7D42078DFF85C9280074FF0000A3ED5FF
:1016E00093480830016811F00C0F09D00068C0F36E
:1016F000810002280BD18E48001D0068400206D4EC
:101700002868800715D5E068012809D111E0E06854
:10171000B8B10120C9F80000FFF7A4FC064605E0B7
:1017200003E1FFF79FFC801B0228C1D828688007CF
:10173000F7D52868216920F0F80040EAC100286048
:101740000DE0C9F800A0FFF78DFC064604E0FFF7A6
:1017500089FC801B02281FD828688007F7D42078CE
:10176000000722D5724F74496069743770B1012047
:101770000860FFF777FC064604E0FFF773FC801B68
:10178000022809D838688007F7D50EE0C1F800A014
:10179000FFF768FC064605E081E0FFF763FC801B6D
:1017A00002287CD838688007F7D42078400769D5AC
:1017B000DFF87CB14FF000080BF1400BDBF80000C4
:1017C000C0000CD4DBF8001041F08051CBF80010C1
:1017D000DBF800004FF0010800F080500090574FF8
:1017E0003868C0050FD4386840F480703860FFF75F
:1017F00039FC064604E0FFF735FC801B02284ED872
:101800003868C005F7D54A4FA068703701280FD057
:101810000528386810D020F001003860386820F0C2
:1018200004003860A068B0B1FFF71CFC06460EE06B
:10183000386840F00100F4E740F004003860F7E752
:10184000FFF710FC811B41F28830814265D838686F
:101850008007F5D50DE0FFF705FC064606E0FFF72B
:1018600001FC811B41F28830814256D838688007DC
:10187000F5D4B8F1000F05D0DBF8001021F080514D
:10188000CBF80010A069C8B3294908310968C1F331
:101890008101022949D00228504607D000E03CE0EF
:1018A000C9F86000FFF7DEFB044639E04F46C9F88F
:1018B0006000FFF7D7FB064604E0FFF7D3FB801B71
:1018C00002282AD828688001F7D4D4E90701084300
:1018D000A16A1B4A490802EB0141626A41EA82118E
:1018E000084394F82C1040EA01611148001D016082
:1018F00001203866FFF7B6FB044605E013E0FFF76A
:10190000B1FB001B022808D828688001F7D50AE03F
:10191000FFF7A8FB001B022802D90320BDE8F88FBF
:1019200028688001F4D40020F8E70120F6E70000E1
:101930000038024000004742800E474200700040DD
:101940000000FFFF70B5040005D00025A56294F8E3
:10195000510010B106E0012070BD84F850502046BF
:1019600000F030F8022084F851002068016821F06E
:1019700040010160D4E901010843D4E90312114395
:10198000084361690843218B01F400710843E16950
:101990000843216A0843A16A084321680860A069D6
:1019A000042101EA1040616A084321684860206808
:1019B000C16921F40061C1616565012084F85100AD
:1019C000002070BD00B500680E4987B0884217D16D
:1019D0000D480021026842F400420260006800F4F1
:1019E000004005904FF4E05000900220CDE9010145
:1019F000032003900620049069460448FFF744FA48
:101A000007B000BD003C00404038024000080240E2
:101A10002DE9F84F044690F8500000271E469146E5
:101A20000D4601280DD04FF0010B84F850B0FFF7A0
:101A300019FB804694F85100BA46012804D00227C9
:101A400092E00220BDE8F88F002D79D0B9F1000FA7
:101A500076D0032084F85100C4F854A02563A4F87C
:101A60003490A4F83690C4F838A0A4F83CA0A4F8A8
:101A70003EA0C4F844A0C4F840A0A068B0F5004F50
:101A800004D12068016841F4804101602068016848
:101A9000490603D4016841F040010160E068B0F5F7
:101AA000006F606804D020B3E08E012821D039E0B7
:101AB00010B1E08E012818D1216835F8020BC860FA
:101AC00006E020688168890706D535F8021BC160E9
:101AD000E08E401EE08608E086B3701C05D0FFF75C
:101AE000C1FAA0EB0800B04228D2E08E0028E8D16D
:101AF0001BE0216815F8010B087306E02068816877
:101B0000890706D515F8011B0173E08E401EE0869B
:101B100008E09EB1701C05D0FFF7A4FAA0EB080006
:101B2000B0420BD2E08E0028E8D1334601220221D8
:101B30002046CDF8008000F0D9FF10B1032713E054
:101B400011E042463146204600F0C0FF18B101279F
:101B50002020606508E0A06818B92068C168806826
:101B60000090606D00B1012784F851B084F850A056
:101B7000384667E74FF0E0210428086903D020F0D9
:101B800004000861704740F00400FAE7704710B5A0
:101B9000401EB0F1807F01D3012010BD4FF0E02442
:101BA00060610F21601700F0EDFE0020A0610720AA
:101BB0002061002010BD10B5FFF7E8FF10BD704791
:101BC000704730B590F83820012A20D0012380F8E2
:101BD0003830022280F839200268546824F07004FA
:101BE0005460026854680D682C435460026894681D
:101BF00024F0800494600268946849680C439460FF
:101C000080F83930002180F83810084630BD0220B5
:101C100030BD10B5040003D094F8390010B107E0CE
:101C2000012010BD002084F83800204600F00CF898
:101C3000022084F83900211D206801F031F80120CC
:101C400084F83900002010BD08B500681A498842A0
:101C50000FD11A48016841F00101016000680022BB
:101C600000F00100009011461920FFF7C1FB192078
:101C700015E01249091FB0F1804F14D0104A90426C
:101C800019D1086840F0020008600868002200F0DE
:101C90000200009011461D20FFF7AAFB1D20BDE8A1
:101CA0000840FFF799BB086840F001000860086829
:101CB00000F00100009008BD0000014044380240DF
:101CC000000400400168CA6842F00102CA6000686E
:101CD000016841F0010101600020704770B50446C1
:101CE00090F83800012817D0012584F838500220D8
:101CF00084F839002068826822F0770222F47F425B
:101D000082600868502836D00DDC202858D005DCC9
:101D100080B3102840D150E0022070BD302852D04E
:101D2000402839D13EE060282DD070280BD0B0F586
:101D3000805F03D0B0F5005F2ED110E0206881688D
:101D400021F0070109E0CB68D1E90121206801F009
:101D500012F82068816841F0770181601CE0CB684F
:101D6000D1E90121206801F006F82068816841F47A
:101D70008041F2E71EE0CA684968206801F0C4F8B3
:101D80005021206806E0CA684968206801F0CDF853
:101D90006021206800F0F9FF84F83950002084F8B1
:101DA000380070BDCA684968206801F0ADF840216C
:101DB0002068EFE700212068ECE710212068E9E7C0
:101DC00020212068E6E730212068E3E7704770B5FE
:101DD0000446006801694FF00005C943890715D41E
:101DE000C168C943890711D4E91E01610120207629
:101DF000206880698007204602D0FFF7E7FF04E0F3
:101E000000F0B0F8204600F032F92576206801692C
:101E1000C943490717D4C168C943490713D46FF0B0
:101E200004010161022020762068806910F4407F5F
:101E3000204602D0FFF7CAFF04E000F093F82046E6
:101E400000F015F9257620680169C943090716D401
:101E5000C168C943090712D46FF008010161042069
:101E600020762068C0698007204602D0FFF7AEFFC9
:101E700004E000F077F8204600F0F9F825762068B5
:101E80000169C943C90617D4C168C943C90613D437
:101E90006FF010010161082020762068C06910F4FD
:101EA000407F204602D0FFF791FF04E000F05AF88F
:101EB000204600F0DCF8257620680169C943C9078F
:101EC00008D1C168C943C90704D1891E01612046F0
:101ED00000F0EAF820680169C943090609D4C1681D
:101EE000C943090605D46FF0800101612046FFF760
:101EF00066FE20680169C943490609D4C168C9431F
:101F0000490605D46FF040010161204600F018F940
:101F100020680169C94389060BD4C168C943890691
:101F200007D46FF0200101612046BDE87040FFF743
:101F300047BE70BD00B5006885B0B0F1804F0DD1CF
:101F40004FF4004000900220019000200290039086
:101F50000120049069460248FEF796FF05B000BDD7
:101F600000000240704770B5044690F838000D46F6
:101F700001280DD0012684F83860022084F8390049
:101F800042B1042A18D0082A2AD00C2A4DD139E0AF
:101F9000022070BD206800F001FF2068816941F0D7
:101FA000080181612068816921F004018161206854
:101FB00081692A69114311E0206800F01BFF206845
:101FC000816941F4006181612068816921F4806147
:101FD0008161206881692A6941EA0221816124E0E6
:101FE000206800F039FF2068C16941F00801C16133
:101FF0002068C16921F00401C1612068C1692A69B2
:10200000114311E0206800F057FF2068C16941F4D6
:102010000061C1612068C16921F48061C1612068EB
:10202000C1692A6941EA0221C16184F8396000204E
:1020300084F8380070BD10B5040003D094F839005E
:1020400010B107E0012010BD002084F838002046C0
:1020500000F00CF8022084F83900211D206800F0FF
:102060001FFE012084F83900002010BD7047704722
:1020700010B504460068012200F072FE084821688D
:10208000814202D00748814203D1486C40F40040AD
:1020900048642068016841F001010160002010BD22
:1020A00000000140000401402DE9F04105460068B0
:1020B0001B491C4C1C4E884219D1A06804F124070E
:1020C000400060610020A060E068401CE06038686B
:1020D000FEF704FA9FED151B53EC112BFEF7A8F841
:1020E000FEF70FFA3860B1143046FEF7B2FF11491F
:1020F0002868884212D141143046FEF7AAFFA06931
:10210000FEF7AFF99FED0C1B53EC112BFEF737F9DF
:10211000FEF7C5F9BDE8F04100F056BCBDE8F0811E
:10212000000001400C000020000C02407B14AE4770
:10213000E17A843F0004004020FEE11FFEE1AF3F52
:102140007047704770B5026804461068D1685369DB
:1021500010F00F0F50D003F0010501F490763543D5
:102160005DD0C20705D0CA0503D5E26B42F001027B
:10217000E263420705D5DA0703D0E26B42F00202C0
:10218000E263820705D5DA0703D0E26B42F004026E
:10219000E263020705D5DA0703D0E26B42F00802DA
:1021A000E263E26B002A33D0800604D5880602D5AC
:1021B000204600F0E2FE20684069E16BC0F3801029
:1021C000090700D428B3204600F0C9FE2068416901
:1021D00049061AD5416921F040014161606BA0B107
:1021E0001B490165606BFEF70EFE002810D0606B86
:1021F000016DBDE870400847830610D58B060ED5EB
:102200002046BDE8704000F0B8BE2046FFF799FFB9
:1022100070BD2046FFF795FF0020E06370BD030608
:1022200006D50B0604D52046BDE8704001F042B843
:102230004006F3D54806F1D5D168204621F040018B
:10224000D160202184F8391000F0C2F870BD000080
:102250004F2F000870B5040004D094F83900002511
:1022600010B106E0012070BD84F83850204600F01F
:1022700023F8242084F839002068C16821F4005133
:10228000C160204600F0C0FE2068016921F4904141
:1022900001612068416921F02A0141612068C1681B
:1022A00041F40051C160E563202084F8390084F8CE
:1022B0003A00002070BD000000B50068124987B0E8
:1022C00088421ED11148016841F400310160006864
:1022D000694600F4003005906020009002200190D3
:1022E0000120029003200390072004900848FEF785
:1022F000CBFD002211462620FFF77AF82620FFF7B3
:102300006BF807B000BD00000044004040380240B8
:10231000000C024070472DE9F843044690F839005C
:102320001E4617460D46202850D1A5B19FB194F8FE
:10233000380001284AD0012084F838004FF0000806
:10234000C4F83C80212084F83900FEF78BFEA78476
:102350008146E78426E00120BDE8F883E08C401E3A
:10236000E084A0684B46B0F5805F4FF000024FF06C
:1023700080012046009603D000F0CDFFE8B90DE0C3
:1023800000F0C9FFC8B928882168C0F30800486078
:10239000206908B16D1C05E0AD1C03E0216815F84B
:1023A000010B4860E08C0028D8D14B460022402128
:1023B0002046009600F0AFFF08B10320CCE72020B4
:1023C00084F8390084F838800020C5E70220C3E78C
:1023D0007047FEE701684A69D24352050CD46FF496
:1023E00080624A6104210164002140F8301F2022EC
:1023F000427301730120704700207047F8B504460E
:10240000C06A1E460D461746042807D0012805D08D
:1024100010F5803F02D0206B122804D1206801689B
:1024200041F480710160134600224FF001112046F3
:10243000009600F054F8A0B92069B0F5804F12D092
:102440000620216800EAD51040F0F000086133460C
:102450003A460E49204600F072F838B1206C042844
:1024600011D00320F8BD05F0FE0000E0E8B22168BD
:102470000861064933463A46891F204600F05FF856
:102480000028EBD1F8BD0120F8BD000008000100D4
:1024900070B516460D4604461AE02046FFF79AFF2F
:1024A00008B1012070BD681C12D025B1FEF7DAFD1D
:1024B000801BA8420CD954F8400F40F0200044F88B
:1024C000100900202060202161732073032070BD5B
:1024D00020684069C0434007DFD4002070BD2DE96B
:1024E000F0471D4690460E460446C1F30747DDF807
:1024F000209012E0681C10D02DB1FEF7B3FDA0EBC8
:102500000900A84209D9002044F8300F2021617346
:10251000A07320730320BDE8F0872068012F0AD044
:10252000806926EA00000004000C06D00020404527
:10253000E0D00020EFE74069F3E70120F7E72DE95D
:10254000F047984615460E4604464FF000094FF0F6
:10255000200AC1F3074729E020684069C0434005CD
:1025600013D42068016841F40071016021686FF4A0
:102570008060486104202064C4F8309084F83DA055
:1025800084F83C900120BDE8F087681C0ED02DB186
:10259000FEF768FDA0EB0800A84207D944F8309F79
:1025A00084F80DA084F80C900320ECE72068012F3C
:1025B00006D0806926EA00000004000CE3D0CBE7D7
:1025C0004069F7E770B516460D4604461AE0204606
:1025D000FFF700FF08B1012070BD681C12D025B1C3
:1025E000FEF740FD801BA8420CD954F8400F40F084
:1025F000200044F81009002020602021617320731E
:10260000032070BD20684069C0430006DFD400206D
:1026100070BD00007FB512481049002401604FF4DE
:102620008031C0E901140125046185610D4904620E
:10263000C0E90A14C4600463C5614461FEF74BFA43
:1026400000B1FEE70095CDE9015469460448FEF764
:1026500099F9002800D0FEE77FBD0000002001406E
:10266000F00000200100000F1CB50E490C48086066
:102670000846FEF74EFB00B1FEE700200090024640
:10268000019069460748FEF723FB00B1FEE71022E0
:1026900069460448FEF71CFB002800D0FEE71CBD7D
:1026A00000740040380100202DE9F04F474887B002
:1026B0000025016841F080010160016801F080019E
:1026C0000591016841F001010160016801F001011B
:1026D0000591016841F002010160016801F0020109
:1026E0000591016841F010010160016801F01001DD
:1026F0000591016841F008010160016801F00801DD
:102700000591016841F0040101600068DFF8C0A094
:1027100000F00400059000220C215046FEF79DFCBD
:10272000DFF8B0B049F68077002239465846FEF708
:1027300094FC4FF47058002241462748FEF78DFC68
:102740004FF47049002249462448FEF786FC0124D4
:10275000CDE90045694650460295FEF795FB0C20F1
:10276000CDE900040226CDE9024669465046FEF74F
:102770008BFB1B486946CDE9004002961648FEF7E0
:1027800083FB0097CDE90145694658460395FEF75E
:102790007BFBCDF80080CDE9014569460E480395E5
:1027A000FEF772FB0320CDE90240CDE900946946B3
:1027B0000A48FEF769FB002201210620FEF718FEF9
:1027C0000620FEF709FE07B0BDE8F08F3038024062
:1027D000000002400010024000040240000C0240D1
:1027E000000011100B4810B5094901600A49416009
:1027F00000214FF480428160C0E903124161816190
:10280000C1610162FEF734FC002800D0FEE710BD74
:10281000005400404C010020A08601000E4810B575
:102820000C4901604FF48271416000218160C160F8
:102830004FF400720161C0E905122022C0E90721AE
:10284000416281620A21C162FFF77CF8002800D052
:10285000FEE710BD003C0040A001002010B5144868
:1028600086B01249016042F2CF010024C0E9011490
:1028700042F20F71C0E903144461FFF7CAF900B1D5
:10288000FEE74FF48050009069460948FFF726FAAA
:1028900000B1FEE7049404A905480594FFF791F9F7
:1028A000002800D0FEE706B010BD00000000014087
:1028B000F801002010B51C488EB04FF08041016037
:1028C00054210024C0E901146421C0E90314FFF776
:1028D000A0F900B1FEE74FF48050079007A9124815
:1028E000FFF7FCF900B1FEE70F48FFF7A4FB00B1CA
:1028F000FEE77020CDE90B040BA90B48FFF761F947
:1029000000B1FEE76020CDE9000402940022694690
:1029100005480494FFF727FB00B1FEE70248FFF7E4
:1029200009FB0EB010BD00003402002010B51348A2
:1029300086B0114901604FF47A710024C0E9011496
:102940006421C0E90314FFF764F900B1FEE74FF416
:102950008050009069460948FFF7C0F900B1FEE7D2
:10296000049404A905480594FFF72BF9002800D02A
:10297000FEE706B010BD0000000400407002002019
:10298000FEE770470907090E002806DA00F00F007D
:1029900000F1E02080F8141D704700F1E02080F87D
:1029A000001470471CB501238DF804004FF4FA7031
:1029B000009001AA4E210248FEF7DEFB1CBD00007C
:1029C0004C0100207047000070B53B4E04460022C9
:1029D0004FF470513046FEF740FB384D0A20384A1C
:1029E0002978384B012906D0022914D003293BD07D
:1029F000042924D14BE094FBF0F100FB1140314954
:102A0000105C18706423012201F1BC00FFF700F88C
:102A10000122910210E094FBF0F191FBF0F400FB35
:102A200014102849105C18706423012201F1BC00C5
:102A3000FEF7EEFF0122D1023046FEF70EFB012227
:102A4000214ED40321463046FEF707FB00222146E3
:102A50003046FEF702FB2878401CC0B228700428DC
:102A600001D90020287070BD642194FBF1F191FB25
:102A7000F0F400FB14101349105C18706423012259
:102A800001F1BC00FEF7C4FF01221103D4E74FF4AB
:102A90007A7194FBF1F191FBF0F400FB14100949F9
:102AA000105C18706423012201F1BC00FEF7B0FF36
:102AB00001225103C0E70000000402400C00002086
:102AC00068400008E40000200010024038B50B46C2
:102AD000009204460022802100F008F8002804D06B
:102AE000606D40F020006065032038BD2DE9F041A5
:102AF0001D4617460E460446DDF8188035E0681C72
:102B000033D02DB1FEF7AEFAA0EB0800A8422CD3CB
:102B10002068416821F0E00141606068B0F5827F83
:102B20000BD1A068B0F5004F02D0B0F5806F04D192
:102B30002068016821F040010160A06AB0F5005FE3
:102B40000AD1206801684DF6FF72114001602068CB
:102B5000016841F400510160012084F85100002017
:102B600084F850000320BDE8F0812068806836EAD0
:102B7000000004D00020B842C1D10020F3E70120BA
:102B8000F9E7704710B5FEF7B9FBBDE81040FFF755
:102B900012B8000030B5254893B00025016841F017
:102BA00080510160006800F0805011902048016859
:102BB00041F4804101600068022400F480401190DB
:102BC00001200090000401908001CDE9064008201A
:102BD00008904FF4A870CDE9090404200B906846D2
:102BE000FEF726FD00B1FEE70CA90F2081E83100B9
:102BF0004FF4A0500F904FF48050109005210CA876
:102C0000FEF728FC00B1FEE7FEF7BCFC4FF47A713A
:102C1000B0FBF1F0FEF7BBFF0420FEF7ABFF002294
:102C20001146501EFEF7E4FB13B030BD40380240A1
:102C3000007000401048016841F4700101600F48C5
:102C4000016841F0010101600C4A00210832116065
:102C500002680B4B1A400260031D0A4A1A600268A0
:102C600022F48022026005480C30016002495806B7
:102C7000803908607047000088ED00E000380240AD
:102C8000FFFFF6FE103000240148FFF7A0B8000057
:102C9000F80100200148FFF79AB8000070020020F8
:102CA000F0B50268234D244E244FDFF894C0254B25
:102CB0004FF0804EA84209D0704507D0B04205D0F1
:102CC000B84203D0604501D0984203D122F070048D
:102CD0004A682243A8421BD0704519D0B04217D091
:102CE000B84215D0604513D0984211D0164CA0427E
:102CF0000ED0164CA0420BD0154CA04208D0154C5B
:102D0000A04205D0144CA04202D0144CA04203D1E2
:102D100022F44074CA68224302608A68C2620A6868
:102D20008262A84201D0984201D109690163012160
:102D30004161F0BD00000140000400400008004077
:102D4000000C0040000401400040014000440140EC
:102D50000048014000180040001C004000200040D6
:102D600010B50123046A8B409C430462036A8A40C5
:102D70001343036210BD10B5846842EA032224F4B1
:102D80007F440A432243826010BD826822F07002B1
:102D90000A4342F0070181607047000030B5026AC3
:102DA00022F001020262056A426883690C6823F01E
:102DB00073031C438B6825F002052B430B4DA8427F
:102DC00002D00B4DA8420BD123F00805CB6822F4AA
:102DD00040722B434D6923F0040315438A692A434B
:102DE0004260846149684163036230BD0000014074
:102DF0000004014030B5026A22F010020262036A48
:102E0000426884690D6824F4E64444EA05248D6828
:102E100023F0200343EA05130D4DA84202D00D4DC7
:102E2000A8420ED1CD6823F0800343EA05134D6913
:102E300022F4406242EA85028D6923F0400342EAAF
:102E400085024260846149688163036230BD00008D
:102E5000000001400004014030B5026A22F4807293
:102E60000262036A4268C46923F4007324F07305A4
:102E70000C682C438D6843EA05230D4DA84202D00F
:102E80000C4DA8420ED1CD6823F4006343EA05231C
:102E90004D6922F4405242EA05128D6923F48063A1
:102EA00042EA05124260C4614968C163036230BDF1
:102EB000000001400004014030B5026A22F4805253
:102EC0000262036A4268C4690D6824F4E64444EA75
:102ED00005248D6823F4005343EA0533084DA842C6
:102EE00002D0084DA84204D14D6922F4804242EA42
:102EF00085124260C46149680164036230BD00000C
:102F0000000001400004014010B5046A036A23F088
:102F100001030362836923F0F00343EA021324F000
:102F20000A020A438361026210BD10B5036A23F0EE
:102F3000100303628469036A24F4704444EA023291
:102F400023F0A00343EA01118261016210BD10B5B4
:102F5000806B0021C185C184FFF7F3F810BD0168C3
:102F6000CA6822F49072CA6001684A6922F00102BC
:102F70004A61202180F83A10704710B590F83A1055
:102F8000222901D0022010BD8168B1F5805F11D0E7
:102F90000169002901681FD0496801F07F03816A37
:102FA0004A1C82620B70C18D491E0904090CC1853F
:102FB00018D026E00269816A002A0268526805D0AA
:102FC000D2B20A80816A491C8162ECE7C2F308022E
:102FD0000A80816A891CF7E74A68816A4B1C836210
:102FE0000A70E0E70168CA6822F49072CA6001685A
:102FF0004A6922F001024A61202180F83A10FFF765
:1030000089F9002010BD00002DE9F0410446006858
:10301000016921F44052E168114301612068C168EF
:1030200049F20C6291432369A268E5691A43636916
:103030002B431A430A43C26020684169A26921F404
:1030400040710A434261E0696425B0F5004F974A38
:10305000974920684FF032083FD0884201D0904213
:103060007CD1FEF7A5FA00EBC00101EB001061680E
:103070008900B0FBF1F6FEF79BFA00EBC00101EB13
:10308000001061688900B0FBF1F0B0FBF5F06FF063
:103090001801484306EB800108EB0110B0FBF5F086
:1030A00000F0F006FEF784FA00EBC00101EB00101F
:1030B00061688900B0FBF1F0B0FBF5F006EB00169B
:1030C000FEF776FA00EBC00101EB001061688900A1
:1030D000B0FBF1F7FEF76CFAD2E0884201D09042E3
:1030E0003DD1FEF765FA00EBC00101EB001061680D
:1030F0004900B0FBF1F0B0FBF5F00601FEF758FA1D
:1031000000EBC00101EB001061684900B0FBF1F772
:10311000FEF74EFA00EBC00101EB001061684900B8
:10312000B0FBF1F0B0FBF5F06FF01801484307EB8E
:10313000800108EBC100B0FBF5F000F0F80006EBF1
:103140004006FEF735FA00EBC00101EB00106168A4
:103150004900B0FBF1F7FEF72BFA3CE055E0FEF733
:1031600017FA00EBC00101EB001061684900B0FBE9
:10317000F1F0B0FBF5F00601FEF70AFA00EBC00132
:1031800001EB001061684900B0FBF1F7FEF700FAAF
:1031900000EBC00101EB001061684900B0FBF1F0E9
:1031A000B0FBF5F06FF01801484307EB800108EB26
:1031B000C100B0FBF5F000F0F80006EB4006FEF7AA
:1031C000E7F900EBC00101EB001061684900B0FBBA
:1031D000F1F7FEF7DDF900EBC00101EB00106168CB
:1031E0004900B0FBF1F0B0FBF5F06FF01801484377
:1031F00007EB800108EBC100B0FBF5F000F0070021
:10320000216830448860BDE8F081FEF7C1F900EB29
:10321000C00101EB001061688900B0FBF1F6FEF718
:10322000B7F900EBC00101EB001061688900B0FB49
:10323000F1F0B0FBF5F06FF01801484306EB8001A8
:1032400008EB0110B0FBF5F000F0F006FEF7A0F976
:1032500000EBC00101EB001061688900B0FBF1F0E8
:10326000B0FBF5F006EB0016FEF792F900EBC0019B
:1032700001EB001061688900B0FBF1F7FEF788F9F7
:1032800000EBC00101EB001061688900B0FBF1F0B8
:10329000B0FBF5F06FF01801484307EB800108EB35
:1032A0000110B0FBF5F000F00F00A9E70014014099
:1032B0000010014090F83910212901D002207047F8
:1032C0008168B1F5805F016A0BD04A1C0262026816
:1032D00009785160C18C491E0904090CC1840ED0C3
:1032E00017E009880268C1F30801516001690029EB
:1032F000016A02D0491C0162ECE7891CFBE7016806
:10330000CA6822F08002CA600068C16841F04001CA
:10331000C160002070472DE9F0411E4617468846DF
:103320000446069D1CE0681C1AD025B1FDF79AFEE4
:10333000801BA84214D92068C16821F4D071C160F3
:103340002068416921F001014161202084F83900A1
:1033500084F83A00002084F838000320BDE8F081AA
:103360002068016838EA010004D00020B842DAD0B1
:103370000020F3E70120F9E70148FEF7E3BE000073
:10338000AC020020FEE700000FB4084B10B504A902
:1033900002AA039800F0DEF8044602A9002000F01B
:1033A00070FC204610BC5DF814FB0000833C000854
:1033B00002E008C8121F08C1002AFAD170477047FE
:1033C000002001E001C1121F002AFBD1704700005C
:1033D0002DE9FF5F82B00021DDE90430020DDDF848
:1033E00040B0034318D044F61050A2F2FF324243DB
:1033F0001514119801281FD0A5EB0B00401C5FEAA3
:10340000000A4FF000064E4FDFF83891B0465046A4
:1034100015D5CAF1000413E0119801244AA301282C
:1034200001D16FEA0B010298119AC0E90031C0E99D
:10343000024206B0BDE8F09FCBF10000DFE7044692
:103440000021404A491842EB0450CDE9001012E037
:10345000E00707D032463B4640464946FCF78FFF1F
:103460008046894632463B4610461946FCF787FFA0
:1034700006460F466410002CEAD1DDE90401DDE9BF
:103480000023BAF1000F06DAFCF779FF42464B46FB
:10349000FCF775FF05E0FDF72BF942464B46FDF7BB
:1034A00027F904460E460022284BFDF7A9F903D858
:1034B0004FF0FF30014607E00022254B2046314601
:1034C000FCF7B6FEFDF783F9102409E0002C0ADBB7
:1034D0000A220023FCF774FE039B30321A55641E47
:1034E00050EA0102F2D1641C039AC4F1110314449E
:1034F000119A012A03D0012208430DD10AE00843A2
:1035000004D000204FF0110B119072E7A3EB0B05D4
:103510006D1E0DE05B4504DD4FF0000205F1010575
:1035200004E003DA4FF00002A5F10105002AECD017
:1035300002981199C0E90231C0E9004579E700001D
:10354000000014400000F03F300000000000F04395
:103550000000E03F2DE9FF4F95B09B4689460646A7
:1035600000250FE2252877D100242746F84A0121BB
:10357000059400E0044316F8013F203B01FA03F0F4
:103580001042F7D130782A2811D06FF02F0330780D
:10359000A0F13002092A16D8059A44F0020402EB81
:1035A000820203EB42021044761C0590EFE759F8C3
:1035B000042B0592002A03DA504244F4005405908B
:1035C00044F00204761C30782E2816D116F8010F2C
:1035D00044F004042A280DD06FF02F023078A0F1B7
:1035E0003003092B09D807EB870302EB4303C71805
:1035F000761CF3E759F8047B761C30786C280FD0E2
:1036000006DC4C2817D068280DD06A2814D104E0B5
:10361000742810D07A280FD10DE044F400140AE089
:1036200044F4801401E044F440147278824202D1E0
:1036300004F58014761C761C307866280BD013DCD9
:10364000582877D009DC002875D04528F6D04628C0
:10365000F4D047281AD19DE118E0632835D06428BA
:1036600079D0652812D195E1702873D008DC6728DD
:10367000F1D069286FD06E280DD06F2806D1B5E043
:1036800073282CD0752875D0782874D05A4617998D
:1036900090476D1C75E1C4F30250022809D003283D
:1036A0000DD0D9F8001004280DD00D6009F10409DF
:1036B00067E1D9F80010EA17C1E90052F6E7D9F836
:1036C00000100D80F2E70D70F0E719F8041B8DF87B
:1036D000001000208DF80100EA46012003E059F8AF
:1036E00004AB4FF0FF3061074FF0000102D40DE052
:1036F00008F101018846B9420FDA8045F8DB1AF873
:1037000008100029F4D108E008F10101884681423F
:10371000FADB1AF808100029F6D105985B46A0EBF1
:10372000080721463846179A00F094FA284400EB1F
:10373000080507E04DE029E10DE01AF8010B5A46B3
:1037400017999047B8F10108F7D25B4621463846F1
:10375000179A13E142E00A220092C4F302524FF09A
:10376000000A022A08D059F804CB032A4FEAEC7168
:103770000AD00DE029E02AE009F1070121F0070253
:10378000F2E802C1914609E00FFA8CFC4FEAEC71B5
:10379000042A03D14FFA8CFC4FEAEC71002907DAB6
:1037A0000A460021DCF1000C61EB02012D2202E04F
:1037B000220504D52B228DF80420012203E0E20724
:1037C00001D02022F7E7904659E00A2102E01022BA
:1037D0000DE010214FF0000A00910BE010224FF095
:1037E000000A44F004040827009203E008224FF086
:1037F000000A0092C4F30252022A05D059F804CB01
:103800000021032A08D009E009F1070121F007028D
:10381000F2E802C1914605E01FFA8CFC042A01D1AE
:103820000CF0FF0C4FF00008220728D5702806D0B6
:10383000009B83F0100353EA0A0305D00EE04022F8
:103840008DF80420012208E05CEA010206D0302253
:103850008DF804208DF8050002229046009B83F02D
:10386000080353EA0A030AD15CEA010201D16207A4
:1038700005D530228DF804204FF001087F1E58280E
:1038800004D034A003900EA802900DE036A0F9E712
:1038900053466046009AFCF793FC84460398825C8A
:1038A0000298401E029002705CEA0100F0D102987A
:1038B00006A9081A00F1200A600702D524F4803412
:1038C00000E00127574502DDA7EB0A0000E00020D9
:1038D00000EB0A01009005984144401A0590E0036E
:1038E00006D45B462146179A059800F0B3F90544C3
:1038F000002706E001A85A46C05D179990476D1C45
:103900007F1C4745F6DBE0030CD55B462146179A42
:10391000059800F09FF9054404E030205A461799B5
:1039200090476D1C0099481E00900029F5DC08E0C6
:10393000029802995A460078491C029117999047BB
:103940006D1CBAF10001AAF1010AF1DC65E1000089
:103950000928010030313233343536373839616265
:103960006364656600000000303132333435363729
:1039700038394142434445460000000000F058F900
:103980000544761C307800287FF4ECAD19B0284649
:10399000BDE8F08F620700D4062709F1070222F084
:1039A000070CFCE80223E14603F000485FEA080C3C
:1039B00002D00FF2702C0DE05FEA045C02D50FF22A
:1039C000682C07E05FEAC47C02D00FF2602C01E0B3
:1039D000AFF2700C4FF0FF3823F00043CDF850C029
:1039E00065280CD006DC452809D046281DD047287C
:1039F0003DD13DE0662818D067287ED138E000210F
:103A0000112F01DB112000E0781CCDE9000106A98F
:103A10000EA8FFF7DDFCDDE90F010E9A03910021EE
:103A2000009207F1010A04914DE04FF00040009729
:103A3000CDE9011006A90EA8FFF7CAFCDDE90F02C7
:103A400003920E9B11990022DDF80CA000930492C2
:103A500011B9791C00EB010AB7EB0A0004D4C0F1DC
:103A6000FF3007F1010A0490AAEB0700019044E03F
:103A7000012F00DA01270021112F01DD112000E0C4
:103A80003846CDE9000106A90EA8FFF7A1FCDDE943
:103A90000F010E9A0391002104910092BA4621076A
:103AA0000CD40399514500DA8A46BAF1010F05DDBD
:103AB000009AAAF10101515C302908D0B84202DA1B
:103AC00010F1040F06DA0121CDE9011015E0AAF189
:103AD0000101E9E7002805DC049901440491AAEBFF
:103AE000000102E0411C514500DD8A460499401A5C
:103AF000401C01904FF000400290200704D4019830
:103B0000504501DBCDF8048000208DF84F0002986D
:103B10000DF14F07B0F1004F25D02B200E900298E9
:103B20004FF0020800280CDA404202902D200E903F
:103B300007E00A210298FCF700FD3031029007F8F7
:103B4000011DB8F10001A8F10108F2DC029800287B
:103B5000EFD1791E0E980870307800F0200040F008
:103B6000450007F8020D12A8C01B00F107081498C1
:103B7000007800B1012000EB0A01019801EBE0712F
:103B800005984144401A401E0590E00306D45B4668
:103B90002146179A059800F05DF8054414980078BE
:103BA00018B15A46179990476D1CE00324D55B461F
:103BB0002146179A059800F04DF805441CE004983A
:103BC000002807DBDDE90301884203DD0098405C43
:103BD000179901E0179930205A469047049805F14B
:103BE0000105401C04900198401E019004D12E2034
:103BF0005A46179990476D1CBAF10001AAF1010AC3
:103C0000DDDC05E017F8010B5A46179990476D1C4B
:103C1000B8F10001A8F10108F4DC5B462146179ACF
:103C20000598ABE62D0000002B00000020000000EE
:103C30002DE9F041044600251E461746880404D4A9
:103C400005E039462020B0476D1C641EF9D5284692
:103C5000BDE8F0812DE9F041044600251E4690465E
:103C6000C80301D5302700E02027880404D505E0EB
:103C700041463846B0476D1C641EF9D52846BDE85C
:103C8000F0810A68531C0B601070704701210020FE
:103C900000F05EB870B51E20FDF7C8F81B4C00227E
:103CA00080212046FDF7D9F9012211022046FDF7B7
:103CB000D4F9002261152046FDF7CFF90022211525
:103CC0002046FDF7CAF90022E1142046FDF7C5F9A8
:103CD0000122150329462046FDF7BFF90022294697
:103CE0002046FDF7BAF92821002000F031F80C2118
:103CF000002000F02DF80621002000F029F8BDE892
:103D000070400121002000F023B8000000100240A4
:103D100010B5144630B1012806D0022806D0032879
:103D200011D105E0803104E0C03102E0943100E0BF
:103D3000D431C9B2002000F00BF804E0C1B2012078
:103D400000F006F8641C20780028F7D110BD0000B0
:103D50002DE9F04706460C460120FDF767F8374D80
:103D60004FF400610EB1012200E000222846FDF769
:103D700074F920064FF4806701D5012200E000228B
:103D800039462846FDF769F960064FF4007801D5F9
:103D9000012200E0002241462846FDF75EF9A00618
:103DA0004FF4807901D5012200E0002249462846DF
:103DB000FDF753F9E00601D5012200E00022802141
:103DC0002846FDF74AF90122160331462846FDF739
:103DD00044F9002231462846FDF73FF9200701D576
:103DE000012200E0002239462846FDF736F9600737
:103DF00001D5012200E0002241462846FDF72DF9B9
:103E0000A00701D5012200E0002249462846FDF71F
:103E100024F9E00701D0012200E000228021284699
:103E2000FDF71BF9012231462846FDF716F9314608
:103E30002846BDE8F0470022FDF70FB90010024008
:103E40002DED048B8EB0FDF761FAFEF7A3FEFEF7B1
:103E50002BFCFEF703FDFEF7DDFBFEF7C3FC694814
:103E60006749002601604FF4E131C0E901160C21D9
:103E7000C660C0E904618661C661FEF7EBF900B176
:103E8000FEE7FEF717FDFEF751FDFEF7EDFBFEF72F
:103E9000C5FCFFF7FFFE5B48B438FDF713FF594838
:103EA0003C38FDF70FFF5848FCF7B4FE5548002199
:103EB0007838FEF7DDF8544800214830FCF76DFFF4
:103EC000514810214830FCF768FF00214FA20846F6
:103ED000FFF71EFF4FF47A742046FCF7A7FFFFF7A9
:103EE000D5FE484FA146783F4FF0FF089FED4C8B21
:103EF0004D4DDFF838A1A5F12C049FED4D9B6421B9
:103F00004148FCF735FE08B1A06903E03E48FCF7E4
:103F1000DFFDA061C11700EB1171A8EB2110C0B249
:103F2000FEF740FDB4F9020035F8100000EB400048
:103F30008000FCF7A7FA53EC182BFCF720FAFCF7EB
:103F4000AEFAE0613968486337488030FCF769F9B8
:103F5000354982B24B4680312A48FEF7DCF9608849
:103F6000401C00B26080402800DB6680206A00228E
:103F700064302062B4F90200114635F8100000EBFD
:103F80004000830020484830FCF7FAFE01215046EB
:103F9000FDF75AF860700028206906D040F08000D4
:103FA0002061A088401CA08002E020F080002061F9
:103FB00021A168462269FFF7E7F900216A46084611
:103FC000FFF7A6FEA069FCF74CFA53EC192BFCF79F
:103FD000D6F941EC100B1CA153EC102B6846FFF7EF
:103FE000D3F96A4600210120FFF792FE1AA108A822
:103FF000FFF7CAF908AA00210320FFF789FE7EE730
:1040000000440040AC020020F00000202D2D54613F
:104010006E657220534144494B4F474C552D2D003E
:104020001AA4411AA4419A3F38000020000002401F
:1040300020FEE11FFEE1AF3F427574746F6E3A25BA
:10404000302E336400000000566F6C743A203D201F
:10405000252E33662000000054616E6572205341A6
:1040600044494B4F474C5500EE82DCD6B2767EC2B7
:10407000FEF6000000000000000001020304060735
:10408000080900000000010203040000AC40000821
:1040900000000020E4000000B03300089041000858
:1040A000E40000200C060000C033000801000000FE
:1040B00010000000000000000100000000000000EF
:1040C00000000000000000000000000000000000F0
:1040D00000000000000000000000000000000000E0
:1040E00000000000C800DD00F100040115012401FA
:1040F000300139013F0143014501450145014401BA
:104100004201410141014101420144014501450192
:10411000450143013F01390130012401150104012A
:10412000F100DD00C800B3009F008C007B006C0034
:104130006000570051004D004B004B004B004C00FD
:104140004E004F004F004F004E004C004B004B0004
:104150004B004D005100570060006C007B008C004C
:104160009F00B30048656C6C6F2066726F6D2053C2
:10417000544D3332463420446973636F76657279E7
:104180000D0A000000000000000000000024F40000
:040000050800018965
:00000001FF
